:0200000460009A
:1000000000000120910100007F0300008103000037
:100010008303000085030000870300000000000048
:100020000000000000000000000000004964000023
:100030008B03000000000000116500005565000002
:100040009103000093030000591200007512000094
:10005000990300009B0300009D0300009F03000024
:10006000A1030000A3030000C10E0000DD0E00008C
:100070003D130000AB030000AD030000AF03000020
:10008000B1030000B3030000B5030000B703000094
:10009000B9030000BB030000BD030000BF03000064
:1000A000C1030000C3030000C5030000C703000034
:1000B000C9030000CB030000CD030000CF03000004
:1000C000D1030000D3030000D5030000D7030000D4
:1000D000D9030000DB030000DD030000DF030000A4
:1000E000E1030000E3030000E5030000E703000074
:1000F000E9030000EB030000ED030000EF03000044
:10010000F1030000F3030000F5030000F703000013
:10011000F9030000FB030000FD030000FF030000E3
:1001200001040000030400000504000007040000AF
:10013000090400000B0400000D0400000F0400007F
:10014000110400001304000015040000170400004F
:10015000190400001B0400001D0400001F0400001F
:1001600021040000230400002504000027040000EF
:10017000290400002B0400002D0400002F040000BF
:100180003104000033040000000000000000000003
:100190004FF0000BDFF8BE020068DFF8B612096806
:1001A00001F0030100F01C00142801D14BF0020BF8
:1001B000002901D04BF0010BBBF1000F05D0A7487F
:1001C000A749DFF8722200F09FF8A64880470BF09D
:1001D000020ABAF1000F0CD0DFF86E02DFF86E12DF
:1001E00002680B680FB44FF000024FF0FF0302608B
:1001F0000B609D489D4A9E4B022808D1DFF83E12B5
:100200000A60DFF842120A60DFF836120B6001283C
:1002100008D1DFF82E120A60DFF82A120A60DFF830
:100220001E120B609348002809D193489349944AC1
:1002300000F032F893489449944A00F02DF894481D
:100240009449954A00F028F894489549DFF8E6214A
:1002500000F05AF8BBF1000F12D092489249DFF833
:10026000DA2100F051F80BF0020ABAF1000F07D0C2
:100270000FBC02600B6000BFAFF30080AFF30080E3
:10028000DFF828020FF2030E00474FF000004FF096
:100290000001DFF81CF2FEE72DE9F841884225D085
:1002A000B2EB010200D5FEE740EA010313F00303BD
:1002B00002D000F01DF819E04FF000039046121133
:1002C000F7D09A421CBFF0C8F0C103F10103F8D186
:1002D00008F00F08B8F1000F08D004780C7000F196
:1002E000010001F10101B8F10108F6D1BDE8F88182
:1002F00008B54FF0000303780B7000F1010001F125
:100300000101013AF7D108BD884237D000F0030659
:10031000002E14D04FF00405A5EB06044FF008079B
:1003200007FB06F8914669FA08F9002C07D080F817
:10033000009069FA07F900F10100013CF5E74FF080
:1003400000060F46091A88460911914614461546BB
:10035000B14206D018BFA0E8340206F10106B1424E
:10036000F8D108F00F08B8F1000F07D002704FEA7B
:10037000322200F10100B8F10108F4E77047FEE70E
:10038000FEE7FEE7FEE7FEE7FEE7FEE7FEE7FEE745
:10039000FEE7FEE7FEE7FEE7FEE7FEE7FEE7FEE735
:1003A000FEE7FEE7FEE7FEE7FEE7FEE7FEE7FEE725
:1003B000FEE7FEE7FEE7FEE7FEE7FEE7FEE7FEE715
:1003C000FEE7FEE7FEE7FEE7FEE7FEE7FEE7FEE705
:1003D000FEE7FEE7FEE7FEE7FEE7FEE7FEE7FEE7F5
:1003E000FEE7FEE7FEE7FEE7FEE7FEE7FEE7FEE7E5
:1003F000FEE7FEE7FEE7FEE7FEE7FEE7FEE7FEE7D5
:10040000FEE7FEE7FEE7FEE7FEE7FEE7FEE7FEE7C4
:10041000FEE7FEE7FEE7FEE7FEE7FEE7FEE7FEE7B4
:10042000FEE7FEE7FEE7FEE7FEE7FEE7FEE7FEE7A4
:10043000FEE7FEE7704700000000A2A2A2A2008033
:100440000340088003401080034030800340348024
:1004500003403880034018080240000000F40020E8
:1004600000000120B50400000000000000000000B2
:10047000010000000100000000000060000000001A
:100480009001000020080060200800000099000092
:10049000009900600000002060040020600400203B
:1004A000C0E80020C0E8002000F40020E98500003A
:1004B000658200004FF602022DE9F84F4B494C4B84
:1004C0004D69D3F84C1191420BD1D3F8982042F4E6
:1004D0008072C3F89820D3F8982022F08062C3F885
:1004E0009820444A4249536943F4007353618B682E
:1004F000002B2FD0FFF79EFF3F4A134602F19004D6
:10050000586853F8081BA3420860F9D1B5F5E02FED
:1005100006D3364B0120194618604B689807FCD566
:100520003649136808328B429CBF52F8040C18609D
:100530009442F6D12D4B2E4918468A6C22F4803213
:100540008A641A6842F003021A604368DB07FCD52C
:10055000BDE8F88F2A4B2B4A1C68234604F1E400BF
:1005600032F8021F43F8041B8342F9D1264B04F5ED
:10057000077203F1820033F8021F834242F8041B22
:10058000F9D1224B0122B3F8F4B0B3F8F6A0B3F8D6
:10059000F890B3F8FA80B3F8FCC0B3F8FEE0B3F813
:1005A0000071B3F80261B3F80401B3F80611B3F8AF
:1005B0000831C4F800B4C4F804A4C4F80894C4F81A
:1005C0000C84C4F810C4C4F814E4C4F81874C4F853
:1005D0001C64C4F84004C4F84414C4F848342260CD
:1005E000D4F8E430002BFBD084E700BF00200240A9
:1005F0000080034000ED00E08C8D0000FF8F024082
:100600001408000006070000780700000807000033
:10061000F0B52E4B83B0D3F89820510117D4D3F8FE
:100620009820D2042ED56A4629490868496803C231
:10063000D3F89C2002A9C2F382120A4412F8082CB3
:10064000012A36D003D3DFF8BCE0224B09E0D3F80F
:100650005011214A11F0040F204B18BF1346DFF848
:10066000A4E01F4F1F4E204D204C2148214A224913
:10067000CEF800303B6033602B6023600360116074
:1006800003B0F0BD1D4B1E4ADFF878C0DFF858E01C
:10069000164F174E124D134C16491748CCF8003020
:1006A000CEF800303B6033602A602260086003B0FF
:1006B000F0BDDFF850E00A4F0A4E0B4D0B4C0C48D2
:1006C0000C4A0D494FF40043D2E700BF00800340BD
:1006D000B898000040420F0080F0FA0240787D0197
:1006E0002C000020300000202400002028000020E2
:1006F0001C00002020000020E0AF1D0280BF760813
:10070000C05F3B04340000200000000088270F0376
:100710000200000081009F0900003333FFFF77775C
:1007200077070100004208003300000000000000CD
:10073000C000230035020400080178013300371996
:10074000140010000033000000001404000000003A
:100750000000020000008040F8800700F8800700D9
:100760000002000000000300030040000000000041
:1007700000000000090301000000000000008000EC
:100780000000000003000000000000000000000066
:100790000B000000000000000000400001041040B9
:1007A0000000000000000000000000000000000049
:1007B00000000000000000004000010410400000A4
:1007C0000000000000000000000000000000000029
:1007D0000000000000000000400001041040000084
:1007E00000000000000000000000210000000300E5
:1007F00001000100000009000000010000000000ED
:1008000000000000000000000000000000000000E8
:10081000000000000008024000000000000000008E
:1008200010B5054C237833B9044B13B10448AFF32A
:1008300000800123237010BD600400200000000030
:10084000D4980000084B10B51BB108480849AFF315
:1008500000800848036803B910BD074B002BFBD08C
:10086000BDE81040184700BF00000000D498000009
:10087000640400200000002000000000244B984287
:1008800003D0244A904200D000BE0269002A3AD028
:10089000416901B900BE984203D01E4B984200D076
:1008A0007047002AFCD00029FAD030B40468457B98
:1008B000237DDBB21D4313F0200F4573836911D0F4
:1008C000CD1A0F2D21D91025002101E004680269FD
:1008D000D35C013123708369A94203F10103836171
:1008E000F4D3416999420CD103680021043303F029
:1008F000704202F10072C3F3130304325B014161E1
:10090000D15030BC704700BEC2E7002DDCD1E9E712
:10091000ACE200206CE200202DE9F04FDFF864E249
:1009200083B070450446904600F0DB808F4B9842C0
:1009300000D000BE8E488F4B05469A6C8E4E42F416
:1009400080724FF00B0C4FF40067206084F804C0F5
:100950009A64C6F880719A6C22F480729A640023BB
:100960002B7122684FF0010C13722268744502F15A
:10097000080002F1100502F13409C0F3130A00F077
:10098000704002F1380702F13006C5F3130B00EB9B
:100990004A1005F07045C9F3130A09F0704905EBD8
:1009A0004B1509EB4A19C7F3130BC6F3130A07F0EB
:1009B000704706F0704607EB4B1706EB4A1600F13E
:1009C000007006F1007605F1007509F1007907F174
:1009D0000077C0F804C0C0F808C0C0F800C02B61A0
:1009E0006B61C9F80430C9F800307B607361B36192
:1009F000F361FB6082F84430226882F84830226854
:100A000082F84C3000F08280584B9C4217D000BED8
:100A10002268002382F80C80A16084F80C80636156
:100A20002361A36123626362E361A362E3622363E0
:100A30006363A363E363637303B0BDE8F08FA160F6
:100A40000191FFF7E5FD4D4B01991B68DB00B3FBFE
:100A5000F1F2D309B3F5803F4FEA520ED7D2012B02
:100A600026684FF0010759D906F10C0000F07045D7
:100A700005F10075C0F31300C2F3C73C1C354001FB
:100A80002F5086F804C02068DDB205702668AEEBF2
:100A9000831E06F10C0506F13000AEEBC31305F022
:100AA000704900F0704C1344A3EB4E0309F100723F
:100AB000C5F313050CF1007CC0F313001C326D016B
:100AC0004FF0000E0CF11C0C4001FF2B42F805E02A
:100AD0004CF8007000D900BEDBB286F83C302268CA
:100AE00097E7244B24489A6C4FF4806542F08002CB
:100AF0004FF080470A26276026719A64C0F880511B
:100B00009A6C256822F080029A6428E7A16001911E
:100B1000FFF77EFD1A4B01991B6897E706F10C025F
:100B200002F0704000F10070C2F3130200251C3087
:100B30005201875035712268DBB21370226802F1CE
:100B40000C0002F1300300F0704703F0704607F12B
:100B50000077C0F3130006F10076C3F313031C37CC
:100B600040011C365B013D50F55052E76CE200201D
:100B7000000001400080034000E100E03000002060
:100B80002C000020ACE200200268137A03F00F036F
:100B90000C2B0AD8DFE803F007090F1371090B09C2
:100BA000090909097100836A23B900BE7047C36946
:100BB000002BFAD01847436A002BF6D0184728328A
:100BC00002F07043C2F31302520103F1007189581D
:100BD00010B511F0FF0F04460AD0C16A002959D0A0
:100BE000884723682833C3F31302520103F070438C
:100BF0001A4402F100735B6813F0FF0F0CD0236BF3
:100C0000002B45D0204698472268283202F07043D6
:100C1000C2F3130203EB421202F100739B6813F05C
:100C2000FF0F0CD0636B002B30D020469847226812
:100C3000283202F07043C2F3130203EB421202F1B6
:100C40000073DB6813F0FF0F0BD0A36BE3B12046FA
:100C500098472268283202F07043C2F3130203EB74
:100C6000421202F10072136913F0FF0F09D0E36B17
:100C700043B12046BDE810409CE7036A002B94D0A6
:100C8000184710BD00BE10BD00BEEAE700BED6E7A3
:100C900000BEC1E700BEABE7F8B5194B0446984269
:100CA00003D0184B984200D000BE2046FFF734FE18
:100CB0002368154E03F1300103F1340201F0704551
:100CC000383302F0704003F0704705F10075C1F34E
:100CD000130100F10070C2F31302C3F313034FF0CA
:100CE000000E0C3549010830520107F100775B0115
:100CF00045F801E040F802E047F803E06662F8BD1D
:100D0000ACE200206CE200207D0800001D4B70B4B6
:100D1000984203D01C4CA04200D000BE71B312B95F
:100D200000BE70BC7047984202D0174B9842F8D171
:100D30000479012544F3C40323F0604323F0030343
:100D400003F1604304F01F0405FA04F403F5614362
:100D50000026016142618661C3F8804102680B4E42
:100D6000043202F0704101F10071C2F31302043148
:100D7000520146628D501C6070BC704700BE002A54
:100D8000CFD1CDE7ACE200206CE200207D0800006E
:100D90000A4B984205D00A4B984202D000BE002070
:100DA00070470368427B1B7D4169DBB21A43427383
:100DB00011B9C3F38010704700207047ACE20020E7
:100DC0006CE200200346194870B4834203D0184CEB
:100DD000A34200D000BE39B302B900BE834205D0A1
:100DE0001348834202D0002070BC70470029FAD01B
:100DF000002AF8D01E685C7B307DC0B20443C50772
:100E00005C73F0D50139002001E09042ECD03478D9
:100E1000013001F8014F1E685D7B347DE4B225434B
:100E2000E4075D73E0D5F0E700BED5E7ACE2002053
:100E30006CE20020204B10B4984203D01F4CA0421B
:100E400000D000BE002935D0C02A00D900BE98428B
:100E500005D01A4B984202D05DF8044B7047002928
:100E6000FAD0C02AF8D804680162237A012103F07D
:100E70003F031A432272027942F3C40323F0604312
:100E800023F0030302F01F0203F1604301FA02F4AE
:100E900003F56143C3F880410268043202F07040F8
:100EA000C2F3130200F10070520181501C605DF822
:100EB000044B704700BEC7E7ACE200206CE20020A4
:100EC000684620F007018D4601B50348FFF75CFE38
:100ED000BDE8014085467047ACE20020684620F03E
:100EE00007018D4601B50348FFF74EFEBDE80140FE
:100EF000854670476CE200202C4A036890422DE939
:100F0000F04F1C68D3F81880D3F804C0D3F828E059
:100F10001F6B5E6BDD692CD0254A26491346D1F83C
:100F20004890DFF898A04FF0030B026080F804B0FF
:100F300049F480690820C1F84890CAF88001886C9B
:100F400020F480608864116821F00041116024F071
:100F500001021A60C3F81880C3F804C01A6842F08E
:100F600001021A60C3F828E01F635E63DD61BDE81B
:100F7000F08F104A1049936CDFF8409043F40073EF
:100F80004FF0020B4FF0040A016080F804B0936444
:100F9000C9F880A1D2F84890036829F400709064E1
:100FA0000A6822F000420A60D1E700BF70E3002027
:100FB00000100140008003400010004000E100E00C
:100FC000026830B49368DD053DD40369C568AB425F
:100FD00010D28168194401E0AB420BD211F8014BE9
:100FE0000133546194680361E405F5D5AB4201D245
:100FF00030BC70479368DD0510D4C36985699D4294
:1010000024D94169194401E0AB4207D211F8014BE0
:10101000013354619468C361E405F5D5436A002B3C
:10102000E6D0C16983699942E2D3906810F4807078
:10103000DED1202301E0013BDAD050619168C9057F
:10104000F9D530BC7047C5680369CFE7436A002B08
:10105000EBD1CDE710B590F8803082B0022B0CD0E8
:10106000012B18D003689A68520604D41A690092BA
:101070009A685206FAD502B010BD0446236803E010
:101080001969626F00911AB99A685106F8D5F2E7AA
:1010900000989047F2E7026893685C06EBD4036B14
:1010A000C16A14698B42019404D2826A0199D154B5
:1010B000036B02689168013349060363F0D502B0FF
:1010C00010BD00BF70B5624A0368904282B004460A
:1010D0001D4603D05F4A904200D000BE1A6A9207B4
:1010E0000ED594F88020022A36D0012A9A6803D1BE
:1010F00090E01A6901929A685206FAD50222DA60E3
:101100002A6AD60709D594F88020022A28D02046DA
:10111000FFF756FF23680122DA602A6AD00648D416
:101120002A6A51075CD42A6A12070BD5DA6A94F846
:10113000801042F008020229DA625CD001297FD0D7
:101140000822DA602B6A9B060DD402B070BD1969C3
:10115000626F0191002A59D19A685606F7D5CDE7FA
:10116000A26F5A61D7E72046FFF774FF236A256B09
:10117000002B63D023680022102162626261A261A9
:10118000E261D9609A6A0A439A62DA6A002642F0FA
:101190000C0226612046DA62FFF712FFE36F266336
:1011A00013B12946A06A984723682022DA6002B06A
:1011B00070BD2046FFF74EFF236A2BB1A06A216B5A
:1011C00098472046FFF7FCFE236810219A6A012009
:1011D00022F0100260629A62D9602A6A5107A2D591
:1011E000DA6A204642F00402DA62FFF785FE2368DD
:1011F0000422DA6097E71A68A16F22F47F0222F4D2
:101200007F4242F480721A60596199E701989047D1
:101210002368A1E750063FF571AF226BE16A1869B8
:101220009142019004D9A36A01999954226B2368D1
:101230009968013249062263F0D55FE72368A4E785
:10124000002323612046FFF7BBFE236878E700BF39
:1012500070E30020ECE20020684620F007018D4694
:1012600001B50348FFF72EFFBDE8014085467047F2
:1012700070E30020684620F007018D4601B5034861
:10128000FFF720FFBDE8014085467047ECE20020F3
:10129000174B10B49A6C174942F480129A649A6CF6
:1012A00001F1200442F0F07201209A6411F8012F3C
:1012B00042F3C40323F0604323F0030303F16043CC
:1012C00002F01F0203F5614300FA02F2A142C3F8E3
:1012D0008020C3F88021E9D1054B5DF8044B9A6C5E
:1012E00022F0F0729A649A6C22F480129A64704729
:1012F000008003401B8E00001F2801D900BE7047EC
:10130000024B53F820301960704700BF3C8E00003C
:101310001F2801D900BE704710B4074C0123D4F830
:10132000882019408340814022EA03031943C4F80E
:1013300088105DF8044B7047003001402DE9F843F8
:10134000404BD3F89C71F90734D4FB0601D4BDE8B7
:10135000F8833D4C3D4FA0463A4E0125B4F8643029
:1013600000205A1C92B211B20129D4BFA8F86420FF
:10137000A8F86400B4F860203D60D6F894111BB260
:10138000D4F854C003EB8303013208EB8303C1F3A9
:101390000749A4F86020BCF1000F06D0D96A986A0A
:1013A000C1F30B0104399A6BE047B9F1000FD5D1B5
:1013B000BDE8F883244CB4F85A800FFA88F56A1C0B
:1013C0003BD0B4F95C30013339D0DFF87C90204E4B
:1013D000B4F85820216D05EB8503013209EB830336
:1013E000A4F8582009B118698847B4F95C3008F1AD
:1013F00001081FFA88F8AB42134A0FFA88F512D099
:10140000012DC4BF4FF00008454605EB850504EBF0
:1014100085056B68A4F85A80002B0ADA0123336033
:101420000FFA88F5D4E74FF6FF73A2F85A30A2F806
:101430005C30074B01221A6087E700BEC1E700BE9F
:10144000C3E700BF001004407C04002080328242C9
:101450000031824268B110B440F2BC740022012312
:101460000C21C4805DF8044B027042708170C3701F
:101470000371704738224FF400738A60CB810020DB
:10148000704700BF014B00221A7070470005002012
:10149000372A01D9652070470F4B93F900300BB9FB
:1014A000662070470D4B03EB42228B070AD10B1FBE
:1014B00002F5007052F8041B824243F8041FF9D170
:1014C000002070474B1E02F5007012F8011B82428B
:1014D00003F8011FF9D1F3E70005002004050020FF
:1014E000372A01D9652070470F4B93F900300BB9AB
:1014F000662070470D4B03EB42238A070AD1043B59
:1015000001F5007051F8042B814243F8042FF9D102
:1015100000207047013B01F5007011F8012B81425A
:1015200003F8012FF9D1F3E700050020040500209E
:101530000B4A92F9003083B9F0B40A480A4F0B4EB7
:101540000B4D0C4C01210360436043611170C76077
:10155000866005618461F0BC70470020704700BF61
:1015600000050020E404002091140000E1140000B4
:10157000751400008514000070B4082301F10805FB
:1015800015F9016D5C1E202E12D114F0FF03F7D166
:1015900092F90230202B1AD192F90130202B2AD156
:1015A00092F90030202B28D170BC002303707047C3
:1015B000002BEDD0013BDDB24619431E11F8014B63
:1015C00003F8014FB342F9D101352844E0E7032382
:1015D000013BDDB25419531E02462E21017013F84F
:1015E000011FA34202F8011FF9D1AB1C18440023CC
:1015F000037070BC70470223EAE70123E8E700BFED
:1016000070B50E460446154682B00021202207F030
:10161000BBF832687368226063602A88AB780DF18A
:1016200006002281A37201A901F0AAFE04F11800AC
:10163000BDF8041001F042FE04F11600BDF80610DA
:1016400001F03CFE02B070BD2DE9F04F0B686C4C10
:1016500083B0A34200F2D080164607468B46DFF8DF
:10166000A481DFF8ACA14FF00009DBF80400DBF83F
:10167000082082422ED9DBF80C5000F083FC6D016B
:101680000AEB050400287AD1DBF80C300F2B12D8B6
:101690001AF80520002A75D0E52A05D172E02578D0
:1016A000002D6FD0E52D6DD00133102BCBF80C3011
:1016B00004F12004F3D1DBF80400DBF8083001303A
:1016C0009842CBF80C90CBF804004FF00005D4D32F
:1016D000DBF800301846002B40F0908098F87D2011
:1016E000484B032A40F088809868CBF800004FF000
:1016F000FF3401A95C6300F03DFF00283FD1019851
:101700003F4DA8426FD901A800F0F4FF002836D160
:101710000198A84270D83C4D6B7C002B6CD105F52C
:10172000057100F099FFD5F81402384900F078FEF1
:1017300028BBDBF80000D5F8141200F071FEF0B9F8
:1017400000F040FED8B901464FF400723048C8F8A6
:10175000344007F019F8D5F81802D5F81C32834246
:1017600009D83EE0D5F81802D5F81C32013098426D
:10177000C5F8180235D200F0BBFB0028F2D003B048
:10178000BDE8F08F204607F1400107F14802FFF75E
:1017900037FF1C4B93F87D30032B05D0EEB10020B2
:1017A000346003B0BDE8F08F01A80DF1020101F033
:1017B000E7FD04F11000BDF8021001F07FFD04F117
:1017C0000E00BDF8041001F079FD04F11200BDF81F
:1017D000021001F073FD002EE1D1304603B0BDE8E8
:1017E000F08FD5F81402594600F036FF044ADBF8B2
:1017F000003093427FF639AF0720C0E7014B76E710
:10180000EFFFFF0F2CE80020F8E30020F8FFFF0FA8
:101810002CE600202DE9F04F594D146885B0AC42FC
:101820009DF838905CD816468A46224680464C463B
:101830000193C71D7068B36898427DD2F3680AF1BE
:1018400002094FEA431B4F4B03EB0B0500F09AFBD9
:10185000002845D1F2680F2A65D84A4B13F80B10BF
:1018600000293DD0EB1DE5292FD0E97A09072CD4BA
:10187000002C39D0AE4608F1FF3010F9011F2A299B
:1018800009D03F2903D09EF800C08C451DD1B84235
:101890000EF1010EF1D10AF1FF3005F1080E10F939
:1018A000011F2A2965D03F2903D09EF800C08C452E
:1018B0000BD148450EF1010EF1D1019B7BB3019B89
:1018C00001201D6005B0BDE8F08F0132102AF260E2
:1018D00005F1200527D0203313F8071C0029C2D1B9
:1018E000002005B0BDE8F08F691E08F1FF3011F847
:1018F00001CF10F901EFF445E7D19942F7D119462C
:101900000AF1FF3005F10A0B11F801CF10F901EFD0
:10191000F445DAD15945F7D1019B002BCFD10120F5
:1019200005B0BDE8F08F7068B268013000238242D4
:101930007060F36085D832681046134B2AB993F86B
:101940007D20032ACCD1986830604FF0FF3203A984
:101950005A6300F00FFE0028C2D10398084DA84238
:10196000BED8314600F078FE3268AA427FF662AFF8
:10197000B6E7019B002BD2D01D600120A2E700BF7B
:10198000EFFFFF0F2CE600202CE8002038B50A4BB3
:10199000054693F87D30032B03D01A3001F088FC04
:1019A00038BD143001F084FC040405F11A0001F084
:1019B0007FFC204338BD00BF2CE8002038B504462A
:1019C0000D461A3089B201F079FC084B04F114007D
:1019D00093F87D30032B04D0BDE83840002101F09E
:1019E0006DBC290CBDE8384001F068BC2CE8002033
:1019F0002DE9F043064687B000200D463446B04638
:101A000000F02AFE2F2798F90030002B67D04046BF
:101A100004A902AA01F032FD8146286810B9B9F183
:101A2000010F62D00023009304A802A92A4603AB49
:101A3000FFF7F0FE002873D00398C37ADB066FD55A
:101A4000FFF7A4FF294600F007FE9DF910302E2B6A
:101A500021D0A04556D02346B9F1000F12D04246FE
:101A600009F1FF395FFA89F904EB0900631E12F8E6
:101A7000011B03F8011F8342F9D109F1010904EBAD
:101A80000903C84498F90020002A50D008F1010841
:101A90001F705C1CB7E7B9F1010F3AD09DF9113006
:101AA0002E2B3DD1B9F1020F3AD1B44238D0621E8B
:101AB00096423ED014F9021CA31E2F2905D13AE00C
:101AC00013F9011C2F2904D01346B34203F1FF324E
:101AD000F6D198F90220C2B9B34228D05C1E002387
:101AE0000120237007B0BDE8F0839DF910302E2B44
:101AF00098D1294600F0B0FD9DF910302E2B08D06A
:101B0000A045ACD1C8444346BCE708F103081C46D5
:101B100079E798F901303BB9A642E0D0013CDEE715
:101B2000002007B0BDE8F08308F102086BE71C460F
:101B3000D5E73346CDE71346CBE700BF21B370B4FA
:101B40004D1EEDB2CAB90DB3114C94F83D3003707F
:101B5000E3B13D34421C002305E014F8011F164692
:101B600002F8011B21B10133DBB2AB42F5D1C6183B
:101B700000233370002070BC70473DB102392F2321
:101B80000370CDB20130DEE7002070470646EFE774
:101B90002CE8002030B585B0044601F0B3FD08B153
:101BA00005B030BD0123009304F1980004F1A001B9
:101BB00004F1A40203ABFFF72DFE10B9052005B018
:101BC00030BD039904F13F034A1E04F1470512F8A2
:101BD000010F03F8010FAB42F9D10B7A01F10802B2
:101BE00084F848304B7A204684F849308B7A84F860
:101BF0004A30FFF7C1FC0398C37A183084F84B30A1
:101C000001F056FB039BA4F84E0003F1160001F00F
:101C10004FFB039BA4F84C0003F11C0001F052FBA6
:101C200060650398FFF7B2FED4F8B0302065013349
:101C30000020C4F8B03005B030BD00BF38B501F1A8
:101C400058050C46294601F0A1FC08B1042038BD16
:101C500004F1980004F1A00101F0E2FB0028F5D1A5
:101C600001F050FD00B138BD284604F1A401FFF792
:101C7000BFFE08B90320F6E72046BDE83840FFF76D
:101C800089BF00BF10B598B005A901F07FFC0128FD
:101C900003D10424204618B010BD15A817A901F0DF
:101CA000CFFB04460028F4D101F02CFD10BB9DF9B8
:101CB000143020468BB10130C0B218AB034413F985
:101CC0004C2C002AF7D140B19DF95420202A1FD076
:101CD00001302F22C0B203F84C2C05AB184415A9D3
:101CE00017AAFFF749FC05A801A9FFF781FE18B95B
:101CF0000524CFE70446CDE7084B0DF1130203F1AD
:101D0000400012F8011F03F8011F8342F9D1C1E717
:101D10009DF95C20202ADBD1DFE700BF68E80020C6
:101D200090F840300BB9042070472E2BFBD0FFF702
:101D30008BBC00BF2DE9F041A0B00DA901F026FC3D
:101D400018B1042020B0BDE8F0811DA81FA901F042
:101D500077FB0028F5D101F0D5FC04460028F1D12D
:101D600005AD29460DA8FFF743FE08B90320E9E7B2
:101D70009DF9747009AE2E2F95E80F0086E80F00CC
:101D800001D10520DEE700941DA81FA903AB324650
:101D9000FFF740FD08B10620D4E795E80F00434D5A
:101DA00086E80F004FF0FF3304A86B6300F0A2FC3D
:101DB0000028C7D19DF87430002BC2D02E2BC0D084
:101DC0000DA8314603AAFFF73FFC0028BAD1039AB9
:101DD000374CD37A43F01003D372677C0FB10C20D9
:101DE000B0E7049804F5057100F036FC314E049913
:101DF0000398FFF7E3FD4FF0FF3000F079F82E4A2B
:101E000030462E490396FFF7FBFB03984FF010086E
:101E100080F80B800499FFF7D1FD039B264A2033FD
:101E2000184627490393FFF7EBFB0398059980F8C1
:101E30000B80FFF7C3FD039B3946203318464FF450
:101E4000E072039306F0A0FCD4F8180200F050F8FA
:101E5000014600287FF476AFD4F8183230460133BB
:101E60004022C4F81832264606F08EFC09E000F045
:101E70003FF800287FF466AFD6F818320133C6F871
:101E80001832D4F81802D4F81C22094B9042EED331
:101E9000D3F814020B494FF0FF336B6300F0C0FA24
:101EA00000287FF44FAF00F08DFA4BE72CE80020BC
:101EB000F8E300202CE60020148F0000BC8E000008
:101EC000C88E0000F8FFFF0F08B5074B186843697C
:101ED0003BB19847830704D0044B01221A701020AD
:101EE00008BD002008BD00BF047500202CE80020BC
:101EF000F8B5204D0446286883685BB1661C0ED097
:101F00004369B3B1984782072BD01B4F01233B7025
:101F10001020F8BD184B01221A700D20F8BD174B88
:101F20001A7CDAB9144F3C6B611CE9D11120F8BD61
:101F30002868114F114A00233C6387F83C30137422
:101F4000032683680E4922469847731E80B10130EC
:101F5000DCD013F0FF06E9D02868F2E7D3F8184286
:101F6000E2E74307E4D5044B01221A701720F8BDBD
:101F7000F8BD00BF047500202CE80020F8E3002025
:101F80002CE60020F8B5164D2B6B834220D095F837
:101F90003C300646ABB9134B1B7C93B9124F03245C
:101FA00038681249C36832469847631E90B10130C1
:101FB00012D013F0FF04F3D14FF0FF332B63112045
:101FC000F8BD4FF0FF30FFF793FF0028E6D0F8BDD3
:101FD0000020F8BD2E63F8BD01232B701020F8BD42
:101FE0002CE80020F8E30020047500202CE60020F7
:101FF00070B50D4C0D46002106460B462068142294
:1020000004F0CAFD012818BF1D2501D0284670BD67
:1020100029463046FFF712FE002105460A46206891
:102020000B4604F087FCF1E7F4E3002038B50C4CD4
:10203000002105460B462068142204F0ADFD01285E
:1020400018BF1D2501D0284638BD2846FFF7A2FD40
:10205000002105460A4620680B4604F06BFCF2E7B7
:10206000F4E3002038B50C4C002105460B462068EF
:10207000142204F091FD012802D00025284638BD25
:10208000284600F097FE0546002120680A460B46C8
:1020900004F050FC284638BDF4E3002070B50D4C28
:1020A0000D46002106460B462068142204F074FDFC
:1020B00001280CD12946304600F0A8FE0546002133
:1020C00020680A460B4604F035FC284670BD002502
:1020D000284670BDF4E3002038B50C4C00210546BD
:1020E0000B462068142204F057FD012818BF1D2557
:1020F00001D0284638BD284600F0E6FF00210546FD
:102100000A4620680B4604F015FCF2E7F4E30020D1
:102110002DE9F041104C0F460021804616461D4621
:1021200020680B46142204F037FD012803D0002557
:102130002846BDE8F081394632462B46404600F03D
:10214000E9FF0546002120680A460B4604F0F2FB31
:102150002846BDE8F08100BFF4E300202DE9F041FE
:10216000104C0F460021804616461D4620680B463F
:10217000142204F011FD012803D000252846BDE8F3
:10218000F081394632462B46404600F0CFFF0546E7
:10219000002120680A460B4604F0CCFB2846BDE827
:1021A000F08100BFF4E30020F8B50E4C0E4600218C
:1021B000154607460B462068142204F0EDFC012862
:1021C00018BF1D2501D02846F8BD31462A4638469D
:1021D00000F0B8FF002105460A4620680B4604F0CF
:1021E000A9FBF0E7F4E3002038B50D4C00210546CB
:1021F0000B462068142204F0CFFC01280BD128469E
:1022000000F0E8FF0546002120680A460B4604F06E
:1022100091FB284638BD4FF0FF35284638BD00BF3A
:10222000F4E3002070B50E4C0D46002106460B4627
:102230002068142204F0B0FC01280CD12946304655
:1022400000F0ACFF0546002120680A460B4604F06A
:1022500071FB284670BD4FF0FF35284670BD00BFAA
:10226000F4E3002038B50C4C002105460B462068ED
:10227000142204F091FC012818BF1D2501D0284626
:1022800038BD284601F03CFB002105460A4620687F
:102290000B4604F04FFBF2E7F4E3002038B50C4C9A
:1022A000002105460B462068142204F075FC012825
:1022B00018BF1D2501D0284638BD284600F0A6FFCE
:1022C000002105460A4620680B4604F033FBF2E77E
:1022D000F4E3002038B50C4C002105460B4620687D
:1022E000142204F059FC012818BF1D2501D02846EE
:1022F00038BD2846FFF7C6FC002105460A4620687F
:102300000B4604F017FBF2E7F4E3002038B50C4C61
:10231000002105460B462068142204F03DFC0128EC
:1023200018BF1D2501D0284638BD2846FFF702FDFD
:10233000002105460A4620680B4604F0FBFAF2E746
:10234000F4E30020F8B50E4C0E4600211546074672
:102350000B462068142204F01FFC012818BF1D251D
:1023600001D02846F8BD31462A463846FFF7E6FB3D
:10237000002105460A4620680B4604F0DBFAF0E728
:10238000F4E3002070B50E4E756BF269B3699542A7
:1023900001D3122070BD72796AB11D440024284611
:1023A000FFF7A6FD0134E4B20028F3D17379F26996
:1023B000A3421544F3D8002086F83C0070BD00BF4E
:1023C0002CE80020034B93F83C0008B1FFF7DABF7C
:1023D000704700BF2CE8002070B5104D6B6B834236
:1023E00017D0EB696863984201D3122070BDAB69C6
:1023F0006A79C61800242AB90DE06B79EA69A3420C
:10240000164408D93046FFF7BDFD0134E4B2002878
:10241000F3D1002070BD132070BD00BF2CE8002058
:102420002DE9F041514D82B095F87D300646022BE2
:102430000F464AD0032B3DD0012B03D0152002B00C
:10244000BDE8F08110F00104C1F30B0100EB500670
:1024500057D101A8770A00F031FF3846FFF7BCFFDB
:102460000028ECD1DFF80881C6F3080018F8003026
:102470009DF804205BB2934204D0012308F80020A9
:1024800085F83C300130B0F5007F69D018F8003095
:102490009DF8052014B923F00F010A435BB2934263
:1024A00004D0012308F8002085F83C30002002B059
:1024B000BDE8F0814FEAD0184046FFF78DFF044693
:1024C000B8B3204602B0BDE8F0814FEA102840467C
:1024D000FFF782FF04460028F3D1254BA6EB082620
:1024E00003EB4606304600F0E3FEBFB2B842DDD053
:1024F0003046394600F0E2FE0123204685F83C30A4
:102500009DE701A80901770A00F0D8FE3846FFF7D9
:1025100063FF002893D1DFF85880C6F3080018F84D
:1025200000309DF8042003F00F010A438DF80420C9
:10253000A0E70F4BA6EBC81603EB8606304600F06B
:10254000C1FE27F0704700F0704139438142ADD0A1
:10255000304600F0C3FE0123204685F83C306EE78C
:10256000781CFFF739FF002890D068E72CE800209E
:102570002CE600202DE9F041354B82B093F87D30F8
:102580000646022B0D464CD0032B33D0012B03D033
:10259000152002B0BDE8F08100EB5004670A384610
:1025A000FFF71AFF0028F4D1DFF8A880C4F3080071
:1025B00018F800300130B0F5007F8DF8043004D1F8
:1025C000781CFFF709FF0028E3D118F8003001A8B4
:1025D0008DF8053000F06CFEF3074CBF0009C0F326
:1025E0000B00B0F57F6F2DD205B12860002002B03E
:1025F000BDE8F081C7093846FFF7EEFE0446002823
:10260000C7D1002DF2D01348A6EBC71600EB860009
:1026100000F058FE20F070402860204602B0BDE86F
:10262000F081040A2046FFF7D7FE0028B1D10948FF
:10263000A6EB042600EB460000F03AFE4FF6EF73DF
:102640009842D1D940F07F6040F47F20CCE700BFB2
:102650002CE800202CE60020086040B90D4A136ADF
:10266000526A4B6013448B600023CB60704730B4D8
:10267000084A831E956A1479074A04FB0353904263
:102680004B6094BF1B1900238B600023CB6030BCD0
:10269000704700BF2CE80020EFFFFF0F10B5124C71
:1026A00082B0D4F81802D4F81C32984203D0FFF755
:1026B00069FC02B010BD0D4B4FF0FF32D4F814028C
:1026C00001A95A63FFF756FF0028F2D10198084B81
:1026D000984202D9092002B010BD04F50571FFF738
:1026E000BBFFD4F81802E2E7F8E300202CE8002052
:1026F000EFFFFF0F2DE9F041134F82B0D7F8806054
:10270000BC6BAEB18046002505E00198A0B1B54292
:1027100004F101040CD0A64298BF002401A9204670
:10272000FFF728FF01350028EFD002B0BDE8F081A7
:10273000072002B0BDE8F081631CBB63C8F800400D
:1027400002B0BDE8F08100BF2CE8002070B5144E47
:10275000144DB36B4FF0FF328342A0F1020388BFE8
:10276000B063AB4282B00446726308D910E02046E1
:10277000FFF756FE50B9019CA31EAB4208D801A931
:102780002046FFF7F7FE01460028F0D002B070BDEA
:1027900096F83C000028F9D0FFF7F4FD02B070BDB8
:1027A0002CE80020EDFFFF0F70B5264D264BD5F825
:1027B000304282B00646D5F8280203EB4414FFF7F6
:1027C000E1FB00B996B120460021FFF7F7F80021A0
:1027D00004F11C0000F082FD4FF0FF30FFF788FB92
:1027E000A868FFF7B3FF142002B070BD2046A968A7
:1027F000FFF7E4F8696804F11C0000F06FFD0DF1CB
:10280000060001A900F0BCFD04F11800BDF8041099
:1028100000F054FD04F11600BDF8061000F04EFD66
:102820000A4B93F87D30032B04D04FF0FF30FFF7B5
:102830005FFBD9E704F11200BDF8041000F03EFD83
:10284000F3E700BFF8E300202CE600202CE800208E
:1028500070B5244C244AA3684FF0FF3182B0516315
:1028600033B901AE3046FFF745FF00B302B070BD8B
:10287000D4F81832D4F81C2201339342C4F8183229
:1028800002D2002002B070BD01AE3146D4F814026D
:10289000FFF770FE054640B90198144B821E9A421C
:1028A000E0D804F50571FFF7D7FE2846DEE701986A
:1028B0000F49FFF7B5FD0028D8D1A368094A3BB9F5
:1028C000019890600B49FFF7C7FEFFF77BFDCDE74E
:1028D000D2F814020199FFF7A3FD0028C6D1019890
:1028E000F0E700BFF8E300202CE80020EDFFFF0F29
:1028F000F8FFFF0F0CE6002070B5364C0646A368C3
:1029000065681BB3E3685A1EB2F5FF7F3CD9761B9E
:102910009D19B5F5007F23D3B3F5007F06D3354667
:10292000FFF796FF002835D0142070BD2A48C3F564
:1029300000721844002105F027FFD4F81802FFF7B1
:10294000D7FA0028F0D1A5F50075E9E7FFF780FF79
:102950000028E9D1E368761B9D19B5F5007FDBD22D
:102960001D48C3F500721844002105F00DFF63688F
:1029700001221E4426F4FF7323F0010384E848007B
:10298000E5602274002070BDFFF788FE0028FAD1B0
:10299000E368E0E701464FF400720F4805F0F4FEEB
:1029A000B5F5007F0DD2E2E7FFF752FF4FF400725A
:1029B0000028B9D10146084805F0E6FEB5F5007FCC
:1029C000D5D3D4F81802FFF793FAA5F500750028BF
:1029D000EAD0A9E7F8E300202CE600202DE9F04733
:1029E000B0F1000982B041DBDFF85CA14B46DAF8B8
:1029F000042091453ED99AF81030534C002B7FD1DA
:102A0000DAF80800504E002800F084804F4A002376
:102A100015794FF0FF316D024D45C6F81402516330
:102A20003360F360746838D8DFF82881C4EB090795
:102A300010E0A5422FDADAF800300198641B2B442D
:102A40004045CAF8003007EB040969D84D45C6F87F
:102A5000140222D801A9FFF78DFD3B4A0028E8D0D7
:102A600000238AF8113002B0BDE8F08700239946B0
:102A7000DFF8D4A0DAF8002033499A42BBD802F537
:102A800000709842B7D9C2EB090292B20020CA6026
:102A900002B0BDE8F087DAF814022D49FFF7DCFD3B
:102AA00024B3B9F1000F21D0B9F5007F1EDDB4F5D4
:102AB000007F3CDDDAF81822DAF80030013203F545
:102AC000007304E0B4F5007F2DD903460A46A9F54A
:102AD0000079B9F5007FA4F5007402F1010103F556
:102AE0000070EFD8CAF81822CAF80030A1451EDCE1
:102AF0001FFA89F0CAF80C00002002B0BDE8F08788
:102B00004FF0FF30FFF7F4F900283FF479AF0023CE
:102B10006374F2E74846FFF7EFFE02B0BDE8F087C6
:102B2000D2F81402B9E7CAF81822CAF80030DAF865
:102B30000400A3B24844001BCAF80C30FFF7DCFEC7
:102B400002B0BDE8F08700BFF8E300202CE80020C9
:102B50000CE60020EFFFFF0F2DE9F04F83B0064693
:102B60000C460191154600F0CDFD00285AD1DFF842
:102B7000E8B005FB04F59BE80600DBF80C000B1839
:102B80002B44934224BF121A551A002D4ADDFFF739
:102B900085FD002852D1DBF80C300746B3F5007FE5
:102BA000DFF8B490DFF8B48017D0ADB3DBF80C10C9
:102BB0003046C1F50074AC4228BF2C464144224641
:102BC00005F06CFDD9F80C302D1B2344B3F5007FC4
:102BD00027442644C9F80C30E7D1DBF800309BF8D5
:102BE0001020002103F500734FF0FF30CBF80C10DC
:102BF000CBF80030184C8A4612B1FFF779F920BBA8
:102C0000DBF818320133CBF81832FFF747FD0928FB
:102C10000CD060B9002DC9D1019B97FBF3F003B034
:102C2000BDE8F08F002003B0BDE8F08F8DB13846CD
:102C300000238BF8113003B0BDE8F08F0027384631
:102C40008BF8117003B0BDE8F08F84F811A03846FE
:102C5000E9E73846E7E700BFF8E300202CE600206C
:102C60002DE9F04F02FB01FA83B00091BAF1000F99
:102C700003D1002003B0BDE8F08F054600F042FD0F
:102C80000028F6D1DFF824B19BF8113013F0240F9F
:102C90006BD1DBF80830002B5CD0FFF7FFFC00287D
:102CA0005CD1DBF80C30DFF8088100260127B3F592
:102CB000007F25D0BAF1000F5ED0DBF80C902946DA
:102CC000C9F50074544528BF544608EB0900224654
:102CD00005F0E4FCDBF8002004EB0903DBF804104A
:102CE0001A449142C4EB0A0A2644CBF80C3025441E
:102CF0008BF81070DBD22D49B3F5007F4A60D9D133
:102D00009BF81030294C3BB1D4F81802FFF7F0F8CB
:102D1000002840D1254B1874FFF79AFD044678BB74
:102D2000DBF80C10DBF800200AF1FF330A44B3F59E
:102D3000FF7FCBF80020CBF80C001C4ABAD80192D8
:102D4000FFF7ACFC019A0028B7D00928B5D054741D
:102D500030468FE7FFF77CFD0028A2D000263046E2
:102D60008BF8116003B0BDE8F08FDBF80400FFF7CB
:102D700035FE00288DD0F1E7009B96FBF3F079E754
:102D8000002318468BF81130FFF70EFD00287FF462
:102D900070AF30466EE7002318466374FFF704FDFA
:102DA00000287FF466AF304664E700BFF8E30020F8
:102DB0002CE6002010B59AB007A900F0E7FB10B18F
:102DC00000201AB010BD17A819A900F039FB00287F
:102DD000F6D100F097FC04460028F1D107A803A91A
:102DE000FEF706FE0028EBD0009417A819A903AA45
:102DF00002ABFEF70FFD0028E2D00298C37ADB0693
:102E0000DED41C3000F05EFADBE700BF2DE9F043B2
:102E10004B7899B0002B56D191F90030722B68D0C5
:102E2000772B68D0612B50D1042705A900F0AEFBA9
:102E300000284AD115A817A900F002FB002844D1A8
:102E40009DF954302E2B40D000F05CFC00283CD182
:102E5000994C667C002E38D1314620464FF40D72D5
:102E600004F5097505F090FC294605A8FEF7C0FD9C
:102E700058B348F20202791EC9B201238B401A40AE
:102E8000002A3AD18D49194000297BD113F0810FD6
:102E90001BD0009115A817A92A4604ABFEF7BAFC6F
:102EA00098B10498C37A03F0100303F0FF0663B9E6
:102EB000FEF76CFDA060002840F0D380012067740D
:102EC00019B0BDE8F0832B2B03D0002019B0BDE86A
:102ED000F08391F90230002BF7D191F90030722B79
:102EE00000F0BD80772B00F0B880612BEDD120275A
:102EF0009BE7012799E7022797E704F50578414604
:102F0000D4F82402FFF7A8FB009615A817A942469B
:102F100004ABFEF77FFC002866D00498FEF736FD70
:102F2000DDF810E081469EF80B6016F01106CCD15A
:102F300098E80F0085E80F000EF11C00314600F004
:102F4000CDF9049B3146DA7A03F11A0042F02002EF
:102F5000DA7200F0B3F904983146143000F0AEF99B
:102F6000574B93F87D30032B00F08D804FF0FF30EE
:102F7000FEF7BEFF0028A8D14846FFF7E7FB002870
:102F80009CD0A2E7009204F5057695E80F0086E84C
:102F90000F0015A817A904AB2A46FEF73BFC002832
:102FA0003DD00498C37A13F0110F8ED1FEF7EEFCDA
:102FB000049BA06003F11C0000F084F9A36860602A
:102FC000A6F50575002B3FF479AF18463146FFF79B
:102FD00043FB3C4B68682B60FFF700FD00283FF483
:102FE0006DAF0020687471E705A8294604AAFEF7B2
:102FF00097FE00287FF469AF049A20606060A060AB
:10300000E06020612075D37A4FF0FF3043F0200359
:10301000D372FEF76DFF00283FF450AF55E796E8F6
:103020000F0085E80F003146D4F82402FFF714FBA7
:1030300005A8294604AAFEF773FE00287FF445AFD1
:10304000049A4FF0FF30D37A43F02003D372FEF797
:103050004FFF00283FF432AF37E71027E5E6082797
:10306000E3E604F50571FFF7F7FA04981C3000F069
:1030700029F9144B606030462360FFF7AFFC00284D
:103080003FF41CAF21E70DF10E0003A900F078F921
:103090000498BDF80C10103000F010F90498BDF839
:1030A0000E100E3000F00AF90498BDF80C10123022
:1030B00000F004F95AE700BFF8E3002008000080A0
:1030C0002CE8002000FEFFFF48B108B500F01AFB15
:1030D00020B90F4B5A7C22B9082008BD08BD082032
:1030E0007047012A11D01A7C58744AB14FF0FF3052
:1030F000FEF7FEFE20B10120FFF756FB142008BDAD
:103100000020BDE80840FFF74FBB587408BD00BF62
:10311000F8E3002023B1044B5B7C13F0390F01D19D
:1031200000207047FFF718BDF8E3002033B1044BCF
:103130005B7C13F03E0F01D0FFF792BD002070477B
:10314000F8E3002030B170B5134C637C9B0603D1CB
:10315000082070BD0820704715460E4600F0D2FAD0
:1031600028B9012D09D0022D0FD00DB10B2070BD53
:103170003046BDE87040FFF731BCE0682368184472
:103180003044BDE87040FFF729BC60683044BDE8BA
:103190007040FFF723BC00BFF8E3002010B582B0F9
:1031A00004468DF8070021B1094B5B7C13F03E0FFC
:1031B00003D14FF0FF3002B010BD01210A460DF1DE
:1031C0000700FFF74DFD0028F3D0204602B010BDE8
:1031D000F8E3002020B10C4B5B7C13F0390F02D1D7
:1031E0004FF0FF30704700B5012183B00A460DF162
:1031F0000700FFF7B1FC20B19DF8070003B05DF8B0
:1032000004FB4FF0FF30F9E7F8E3002010B59AB067
:1032100007A900F0BBF910B104201AB010BD17A81F
:1032200019A900F00DF90028F6D19DF95C302E2B7C
:1032300001D10520F1E700F065FA04460028ECD141
:1032400007A803A9FEF7D4FB08B90320E5E700941B
:1032500017A819A903AA02ABFEF7DCFA0028E8D0E8
:10326000029AD37AD906F0D4DB0701D50D20D4E732
:103270000E4B597C21B1D3F82802049988420DD015
:10328000E52313704FF0FF30FEF732FE0028C4D163
:103290000298FEF77BFBFFF759FABEE7D3F830122E
:1032A000069B9942ECD10C20B7E700BFF8E3002061
:1032B0004278007840EA0220704700BF0B0A017094
:1032C00043707047C1788378427843EA01230078DD
:1032D00042EA032340EA0320704700BF10B40A0CFF
:1032E0000C0E0B0AC4700170827043705DF8044BC1
:1032F000704700BF30B10844002301F8013B814210
:10330000FBD170470846704788B171B130B4531E85
:10331000451810F8014BA84203F8014FF9D10A44AF
:10332000104630BC704711460A46104670470029C7
:10333000F9D0114402F8010B8A42FBD10A46F4E7A6
:103340000B46020A4A7003F8020B1846704700BF8A
:103350000346084630B41A0A1D0E1C0CCD708C7042
:103360004A7000F8043B30BC704700BFC3B2A3F101
:103370006102192A9CBFA3F12000C0B240B270477D
:10338000F0B583B0064668460F46FEF763F89DF831
:1033900004009DF800109DF80140BDF806209DF83E
:1033A00002509DF803304001C1F3440100F4F07075
:1033B0006401A2F2BC7240EA422241EAC52504F44B
:1033C000FC6403F01F0345EA0400134330803B8094
:1033D00003B0F0BD70B40022014488421CD010F844
:1033E000013B9AB95CB2202CA3F15B0523F04006A7
:1033F00023F004030CD0022D05D93C2E03D02F2C32
:1034000001D03A2BE9D1012070BC7047202BFAD1B2
:1034100088424FF00102E2D1002070BC704700BF2B
:1034200010B50C460821FFF7D5FF38B92046032117
:10343000FFF7D0FF003018BF012010BD012010BDE4
:1034400010B4431EC41D13F9012F3F2A11D02A2A9C
:103450000FD0A342F7D14B1E8C1C13F9012F3F2A2A
:1034600007D02A2A05D0A342F7D15DF8044BFFF715
:10347000D7BF01205DF8044B704700BF2DE9F04F26
:10348000047883B007460D4604F0FF083CB3B8F15A
:103490005C0F78D0B8F12F0F75D0002303E05C28C3
:1034A00006D02F2804D00133DBB2F85C0028F6D117
:1034B0009846002B50D02E2C5ED0F91811F9011C23
:1034C0009E462E2904D12EE011F9011C2E292AD066
:1034D0000EF1FF3010F0FF0E07EB0E01F4D146465F
:1034E00020231370537093703C4607F108094FF086
:1034F000200A06E001344C4585F800A005F10105DD
:103500000DD0E31BDBB24345F4D294F90000FFF782
:103510002DFF01344C45287005F10105F1D13046ED
:1035200003B0BDE8F08F91465E1CCEEB0606F6B206
:103530000EF1FF3806F1FF3A5FFA88F800242023E5
:1035400054450BDB89F800300134032C09F10109E3
:10355000F6D14644F6B2C7E79846C0E717F90E0021
:103560000EF1010B0193FFF701FF5FFA8BFBDE46C3
:1035700089F80000019BE7E7012BEDD097F90110D6
:103580002E299AD1ABE74FF00008A8E72DE9F041CA
:103590000646007890B000238DF8003030B396F9DD
:1035A00001300D463A2B04BFB078023640B22F28C6
:1035B00020D05C281ED0084600224021FEF7BEFA2B
:1035C000A0B995F900308046002B00F0978008F1F3
:1035D00001085FFA88F815F90830002BF7D196F941
:1035E000000009E0B8F13E0F414648D1012010B07B
:1035F000BDE8F0814FF0000800246F460DE05C2824
:1036000013D0202849D03D2CF0D810AA631C1444B4
:1036100004F8400CDCB216F9010FFFF7A7FE0028F2
:103620003ED03A28E2D02F28E9D1B8F1000F0FD0D0
:1036300005EB080313F9013C42462F2BD6D0B8F115
:103640003D0FD3D808F101082F235FFA88F8AB5457
:10365000002CE0D010AB234413F9413C202B09D1BE
:10366000013C14F0FF0410AB2344D4D013F9413CC7
:10367000202BF5D0B8F13E0FB8D03A46414612F8AB
:1036800001EB08F10108D31BDBB29C425FFA88F81A
:1036900005F801E0A6D80024BDE7002CBBD0B2E7B6
:1036A00010AB234405F8080003F8400CA4B1013C1A
:1036B00010AB234413F9402C202A04D00CE013F95A
:1036C000402C202A08D114F0FF0403F8400C04F128
:1036D000FF3410AB2344F2D1684605F1400105F1F7
:1036E0004802FFF7CBFE08B9022080E795F94000B9
:1036F000A0F12000B0FA80F0400978E7984696F9EA
:10370000000079E72DE9F0416E4C2378012B06D0BB
:10371000022B20D1FEF7D8FB002800F0A1806A4AD6
:103720000023106884F83C3084F83D3084F87D3004
:10373000456966494FF0FF32A3630B744B742263F3
:103740006263604E55B1A847C30707D501233370A4
:103750001020BDE8F0811120BDE8F081002318465B
:1037600084F87D30FEF70EFC00287BD1584E96F889
:10377000FE31552B76D196F8FF31AA2B72D13378D2
:1037800003F0FD03E92B73D006F5E370FFF79AFD14
:103790000546FEF7F7FB002864D196F8FE31552B5D
:1037A00060D196F8FF31AA2B5CD1337803F0FD038A
:1037B000E92B57D14748FFF77BFDB0F5007F51D18A
:1037C000737B45482371FFF773FD337CA061434849
:1037D0006371FFF76DFDC0F3161341486362FFF795
:1037E00067FD737D07463F48A371FFF761FDE06108
:1037F0003D48FFF767FD854238BF0546A3692B4466
:10380000A361002F58D0D4F81C802E4EB8F1000FC1
:1038100039D07279B369716A08FB02330022194406
:10382000F262324A3362B1621046FFF74BFDA36A7F
:103830002279EB1A3B44B3FBF2F3B3F57F6F60617F
:10384000C4F880301F4A15D2012382F87D30A37955
:103850001C4A03F0F703F02B04D10223137000205D
:10386000BDE8F081002384F87D300220BDE8F081BE
:1038700005469FE74FF6EF718B4294BF0223032367
:1038800082F87D30E3E71A48FFF71CFD0146B36973
:103890007279184802FB0132F161B262C6F82C80DD
:1038A000FFF710FD3179B26A831E01FB0323B0607C
:1038B000114A71623362B7E71048FFF703FD07460C
:1038C000A1E700BF2CE8002004750020F8E30020E9
:1038D0002CE6002037E600203AE600203DE60020F6
:1038E0003FE6002042E6002048E6002053E60020A4
:1038F00050E6002058E600206FE600204CE600204D
:103900002DE9F0418AB00646FFF7FCFE10F0FD03FA
:1039100002D00AB0BDE8F081574A584D10680793AD
:1039200008930993012406932C70036906A998470C
:1039300018B111200AB0BDE8F081089F0FB912201C
:10394000E7E70223F022032E6B71AA7116D0012E35
:1039500032D0022E33D14FF6F074A742C0F09881D6
:1039600007210222B7FBF2F3A3424FEA420028D319
:103970000139C2B2F6D12A711A20CAE7B7F5003F61
:1039800040F28B81B7F5802F40F28581B7F5002F8B
:1039900008D9B7F1807F40F2C081B7F1007F8CBFBA
:1039A00005230423364A354802EBC30319792971EC
:1039B000002943D11520ACE74FF47F64CDE71820F0
:1039C000A7E72A71012E2D4A297900F05281022E93
:1039D000F0D10802A7F12203023003EB41030344B4
:1039E000B3FBF0F080B2D060244A4FF0000888B3F7
:1039F000430003F1010C4FF0010E21332024D0616C
:103A0000C2F82C80C2F820C09362C2F818E0546259
:103A1000FF1AB7FBF1F7B7F57F6F184CC5F8807048
:103A200030D34FF6EF739F4240F2098103239E4249
:103A300084F87D3000F09C8119206AE7CA01A7F163
:103A40002503023203EB41031344B3FBF2F30022DC
:103A50000361C2602869AA6843002433023A02FB6A
:103A600001324FF0240E00246962E861AB622A62E1
:103A7000C5F818E0EC62CBE7047500202CE80020C4
:103A8000DC8E000001239E4284F87D30D4D1C34EE9
:103A90004FF0FF3300214FF400723046636304F0AF
:103AA00073FE3046A379FF2100F8013B022204F0A7
:103AB0006BFE0224A869FEF71BFAAB69E86918449B
:103AC000FEF716FA621CB548002104F05DFEEB69B2
:103AD000012B88BF01240DD9A8692044FEF708FAFC
:103AE000AB69E86918442044FEF702FAEB69013437
:103AF0009C42F1D36B6A63B1A94E0024286A20442A
:103B0000FEF7F6F9013400287FF403AF736A9C4294
:103B1000F4D3A44AA44C03AB07CA03C395F87D10A1
:103B20002688A078A48803291A70ADF80860ADF83B
:103B300004408DF80A0000F0B28001264FF40074B2
:103B40000321964A02A8FFF7DFFB0821024603A8DB
:103B5000FFF7DAFB01464FF40070FFF7F1FB014677
:103B60002B79013101F8013C3046FFF7E9FB0146B2
:103B700002230B7020460131FFF7E2FB0146089853
:103B8000B0F5803F34BF80B20020FFF7D9FBF023AF
:103B90000370411CA889FFF7D3FB0146BDF81A004A
:103BA000FFF7CEFB0146BDF81C00FFF7C9FB01463D
:103BB0000020FFF7CDFB01460898B0F5803F38BFE5
:103BC0000020FFF7C5FB95F87D200146032A744BC2
:103BD00000F0AF8000240020FFF7B2FB2923037020
:103BE000411C7248FFF7B4FB0B2102467048FFF7F7
:103BF0008BFB95F87D300246022B00F09580032B5D
:103C000000F08D80012B7FF4D5AE6A480821FFF7C4
:103C10007BFB0246C4F5E0710020FFF775FB022133
:103C2000024601A8FFF770FB2CB10620FEF760F9F1
:103C300000287FF46EAE0020FEF75AF969E60223F1
:103C40009E4284F87D307FF4F7AE544E4FF0FF3340
:103C500000214FF400723046636304F095FD304656
:103C6000A379FF2100F8013B032204F08DFD03241A
:103C700020E7A7F121038C0203EB4103601D03EB56
:103C800043030344A01DB3FBF0F080B2D060ABE669
:103C900001232B7196E6234684E6034682E63F48DD
:103CA00000214FF4007204F06FFD00242046FEF75F
:103CB0001FF9013400287FF42CAE242CF6D13749AB
:103CC0003D48FFF745FB01464FF4F070FFF712FB4C
:103CD00001463A48FFF73CFB01464FF0FF30FFF743
:103CE00037FB01464FF0FF30FFF732FB01460C2057
:103CF000FFF700FB01463248FFF72AFB0120FEF7E1
:103D0000F7F800287FF405AE0720FEF7F1F8002849
:103D10007FF4FFAD2646044612E7334642E608210B
:103D20002848FFF7F1FA74E708212748FFF7ECFA73
:103D30006FE71869FFF70CFB01460020FFF700FB57
:103D400001460020FFF7FCFA01460220FFF700FBC6
:103D500001460120FFF7F4FA01460620FFF7F0FACA
:103D60000C2102460020FFF7CFFA1C24014632E75F
:103D70000A4E4FF0FF3300214FF400723046636368
:103D800004F002FD3046A379FF2100F8013B0B222D
:103D900004F0FAFCF82333720B248BE62CE60020A7
:103DA0002CE800203C8F0000D48E00004433221108
:103DB0000C8F0000188F00005252614172724161F5
:103DC000000055AA308F0000248F000038B50D4C3C
:103DD0000546236873B10C4C00202070A8470B4B9C
:103DE000186028B101232370BDE83840FFF78ABC72
:103DF0000F2038BD012002F037FE20600028EAD1F4
:103E00001D2038BDF4E300202CE8002004750020BC
:103E100038B5084D084B2C680A46002C08BF1C46D4
:103E20002368596804F006FF60682860003018BFF6
:103E3000012038BD087D00200800002038B5054667
:103E400088B1082002F018FA044678B102F030FB7D
:103E5000084B00211A682560616054601C6002F004
:103E600045FB012038BD02F00DFBFEE702F00AFB26
:103E7000FEE700BF040000202DE9F047324F064660
:103E80003B68884691465BB11B6840469B68494643
:103E90003246984710B93860BDE8F087BDE8F08732
:103EA0002A4B3B601C4600E01C46D4F800A0DAF820
:103EB0000050284604F018FE335633F0200305D195
:103EC00002462946304604F06BFE58B163683B60F9
:103ED000002BE9D140464A461D4904F0ABFE0020C4
:103EE000BDE8F0879AF90C40002C11DB337843B31E
:103EF0003246014603E0002112F8013F63B1202B56
:103F0000F9D1012900F10103F6D0D8B20121F3E77C
:103F10003B68002BDED0B7E701290FD040B28442C6
:103F2000F6D03B68084C002BD4D040464A4609499D
:103F300004F080FE00202060BDE8F0870138C0B2A8
:103F4000ECE71846EAE700BF0C7D002008000020DF
:103F5000B08F0000588F000000487047087500209F
:103F600030B40024146029B303781BB91FE010F8A3
:103F7000013FE3B1202BFAD110F8013F202BFBD0F9
:103F8000ABB101348C42EFD123F020014BB273B1BD
:103F90000346C0F101055919116013F9014F34F0BE
:103FA0002004F8D1002908BF002030BC7047184613
:103FB00030BC70470846FBE770B5044682B002AEDD
:103FC000002526F8025D206831466268002302F071
:103FD000B1FC012818BF0125F5D125B9A2681388C5
:103FE00001339BB21380BDF806300133ADF80630C3
:103FF000E9E700BF70B500260446354682B0206868
:104000000DF106016268002302F0C6FD0128F6D119
:10401000BDF80630AB4202D01D460646EFE701333D
:1040200026B9A1680A88013292B20A809DB2E6E7F9
:104030002DE9F04F834687B00C2002F01DF90221D4
:1040400005460022012002F037FC434E4FF47A78F7
:1040500085E80101AE600C2002F00EF9DFF818913E
:104060002B683E4F00240360446087602B46059018
:10407000CDF800B048460194029403943849502288
:1040800002F08EFFDFF8F4A0DDF814C03549634676
:1040900050220094019402940394504602F080FF51
:1040A0000C2002F0E9F8224605460221012002F028
:1040B00003FCBB1C85E81100AB600C2002F0DCF8AF
:1040C0002B68B21C80E8080182602B4605900094A2
:1040D00048460194029403942349502202F060FF61
:1040E000DDF814C0214963465022CDF800B0019498
:1040F00002940394504602F053FF0C2002F0BCF8E7
:10410000224605460221052002F0D6FB043728602E
:10411000AF60C5F804800C2002F0AEF807462B68AB
:10412000043687E80801BE602B465046009401948F
:10413000029403940E49502202F032FF009401943D
:104140000294039448463B460A49502202F028FF55
:1041500007B0BDE8F08F00BF207D0020107D00205B
:1041600038900000409000004890000050900000FF
:104170005890000060900000F53F0000B93F00003B
:10418000F0B51149114C124E124D0023012036F8A2
:104190001320B1F9007012B2974208BF002036F820
:1041A00013C035F81320B4F900E035F8137012B2DB
:1041B0000133964508BF0020032B21F802CB24F8D9
:1041C000027BE4D1F0BD00BF287D0020187D0020D7
:1041D000207D0020107D002008B5044C002003F055
:1041E000B3F8236801332360F8E700BF387D00206F
:1041F00070B504460C4E0125002003F0A5F80021FF
:104200000B464FF0FF32204602F0C6FC0021012889
:104210000A460B46204618BF356002F08BFB01288A
:1042200018BF3560E8E700BF447D00202DE9F84F56
:104230008146012002F018FC0746002800F0C280E9
:10424000624D634EDFF88CB1DFF88CA1DFF88C8112
:10425000012400210A460B46484602F09DFC012835
:104260004FF0000018BF2C60306002F0F5FF00B185
:104270002C60DBF8000003F0CDF8002002F0ECFF2A
:10428000012103284FF0000018BF2C6002F0F8FF56
:10429000002002F0E1FF0328DAF8000018BF2C60CC
:1042A00003F0B8F8336803B12C6000210A460B46CE
:1042B000384602F071FC002101280B460A464846A8
:1042C00018BF2C6002F036FB012818BF2C60336841
:1042D00003B12C60002002F0BFFF00210A46032832
:1042E0000B46384618BF2C6002F024FB012818BF8B
:1042F0002C6033680020012B18BF2C6002F0ACFF4B
:1043000001284FF00000014618BF2C6002F0B8FFF2
:10431000D8F80030002103F1010E0A460B4648464A
:10432000C8F800E002F038FC01284FF0000018BF88
:104330002C60306002F090FF00B12C60DBF80000D0
:1043400003F068F8002002F087FF0328DAF8000085
:1043500018BF2C6003F05EF8336803B12C600021B5
:104360000A460B46384602F017FC002101280B468E
:104370000A46384618BF2C6002F0DCFA012818BF44
:104380002C60336803B12C60002002F065FF00212F
:1043900003280B460A46484618BF2C6002F0CAFAAA
:1043A000012818BF2C6033680020012B18BF2C6037
:1043B00002F052FF00B12C60D8F800300133C8F889
:1043C000003046E702F05EF8FEE700BF447D0020C3
:1043D000387D0020347D00203C7D0020307D002091
:1043E0002DE9F04304468C4E8C4F83B04FF000080B
:1043F00001258A4900220123204602F09BFA20462B
:1044000002F092FC0022012813462046694618BF9C
:10441000356002F0C1FB012818BF35603A68009B87
:1044200020469A4218BF356002F07EFC00B135602C
:10443000002213467949204602F07CFA204602F019
:1044400073FC0022012813462046694618BF3560D8
:1044500002F0A2FB0128204618BF356002F064FC80
:1044600000B13560009B3A689A424FF0020318BFD2
:1044700035600093002213462046694602F05AFA3E
:10448000009B0133042B0093F4D9204602F04CFC2E
:10449000694603284FF000024FF00103204618BF81
:1044A0003560009502F046FA694600220123204655
:1044B000CDF8008002F03EFA204602F035FC694655
:1044C00005284FF0000220464FF0010318BF356069
:1044D00002F030FA00B135600022134620466946EA
:1044E00002F028FA002800F094803560CDF80080B2
:1044F00001A900220123204602F04EFB9DE8004264
:104500006FEA0E0C00220128134618BF356001A97E
:10451000F145204618BF3560CDF804C002F03CFBE1
:10452000009A0199012802F1010318BF35608A42FF
:1045300018BF3560042B0093DAD9204602F0F4FB53
:1045400000B13560002213464FF00A0E694620463E
:10455000CDF800E002F0EEF90022012813464FF0FA
:104560000B0E6946204618BF3560CDF800E002F01A
:10457000E1F90128204618BF356002F0D5FB092378
:10458000022818BF356000930123204669460022A7
:1045900002F0D0F9009B012803F1FF3318BF35600A
:1045A000062B0093F0D8204602F0BEFB6946052892
:1045B0004FF0000220464FF0010318BF356002F0B3
:1045C000B9F900B13560002213462046694602F071
:1045D000B1F9072300B1356000930022134601A909
:1045E000204602F0D9FA009A0199012802F101034C
:1045F00018BF35608A4218BF35600B2B0093ECD989
:10460000204602F091FB00B135603B6801333B600E
:10461000EFE600906CE700BF447D0020487D00205D
:1046200030B5042185B005460022052002F044F98A
:1046300000240346009518495022019402940394E3
:10464000164802F0ADFC012002F00EFA05460346C2
:10465000009401940294039411495022114802F0ED
:104660009FFC114902222346019100920294039477
:104670000E4950220E4802F093FC0E49032201918C
:104680000092029403942B460B4950220B4802F0EF
:1046900087FC05B030BD00BF68900000E14300001A
:1046A000709000002D4200003C7D002078900000BA
:1046B000D9410000347D002080900000F1410000CD
:1046C0000D480E4A0368116870B499420C4C04BF3F
:1046D000012323600B490C4B0D681E68AE4204BFDA
:1046E000012525600568096820681560B0FA80F02A
:1046F00070BC400919607047487D0020407D002053
:10470000447D0020307D00204C7D002000232DE9D9
:10471000F04107461E4682B002ADDFF8488025F81A
:10472000023D0324002213463868294602F002F9AC
:10473000012806D00126013CF4D1C82002F0F6FF82
:10474000EFE72EB1BDF806300133ADF80630F2E7E1
:1047500001F0AEFED8F800300133C8F8003001F0A7
:10476000C5FEEFE7547D00202DE9F0410027044607
:104770003E46DFF8588082B0206802F0D5FA002269
:1047800040B9B42002F0D2FF206802F0CDFA002236
:104790000028F6D020680DF10601134602F0FCF95E
:1047A0000128E9D1BDF80650B54203D007460135CE
:1047B000AEB2E1E7002FFAD101F07AFED8F800306E
:1047C0000133C8F8003001F091FEF0E7587D002079
:1047D00070B5022184B0064600220A2002F06CF86F
:1047E0000C4D002428602B460096019402940394FB
:1047F00009495022094802F0D3FB00960194029423
:1048000003942B4606495022064802F0C9FB04B027
:1048100070BD00BF507D00208890000069470000F7
:10482000909000000D470000054A0649106818B135
:104830000868003018BF0120002313600B60704728
:10484000587D0020547D00202DE9F047234EDFF8ED
:104850009490234FDFF8908082B04FF0000A5525E6
:10486000002002F071FD02F047FE01A90446AF22CC
:10487000D9F800000023CDF804A0356002F05AF802
:1048800008B101233B6002F037FE001BAE2801D9BE
:10489000BE2801D901233B600020356002F054FDA1
:1048A00002F02AFE01A90446AF22D9F80000002335
:1048B000356002F071F908B101233B6002F01CFE83
:1048C000001BAE2801D9BE2801D901233B60356009
:1048D000D8F800300133C8F80030C1E7647D00200B
:1048E000707D00206C7D0020787D00202DE9F04F48
:1048F0008C4F8D4E8D4DDFF83C9283B0002300939A
:104900004FF00A0A4FF001080AFA03F402F0F4FD2E
:104910002246834601A93068002302F03DF908B120
:10492000C5F8008002F0E8FD009BCBEB000084425C
:1049300004F10F0203F1010388BFC5F80080904223
:1049400088BFC5F80080042B0093DDDD00230093B1
:104950000124002213463068694601F0EBFF009BFA
:10496000012803F1010318BF2C60042B0093F0DD34
:10497000002300934FF00A0A4FF001080AFA03F4EB
:1049800002F0BAFD2246834669463068002301F0F2
:10499000D1FF08B1C5F8008002F0AEFD009BCBEB63
:1049A0000000844204F10F0203F1010388BFC5F83F
:1049B0000080904288BFC5F80080042B0093DDDDA5
:1049C0000023D9F800003B6002F024FD3B68552B22
:1049D00005D0142002F0AAFE3B68552BF9D1142013
:1049E00002F0A4FE4F4B00221A6000920124002224
:1049F000134601A9306802F0CFF8002213460128BF
:104A00006946306818BF2C6001F094FF012818BF78
:104A10002C603B680421552BD9F8000008BF2C609E
:104A200002F02EFC3B68D9F80000552B4FF0010135
:104A300008BF2C6002F024FC009B0133042B009380
:104A4000D5DD3B681420552B05D002F06FFE3B6886
:104A50001420552BF9D102F069FE324B00221A6066
:104A60000092012400221346306801A902F094F854
:104A7000009B012803F1010318BF2C60042B009355
:104A8000F0DDD9F8000002F0C5FC3B68552B05D0DD
:104A9000142002F04BFE3B68552BF9D1142002F094
:104AA00045FE204B00221A6000920124002213468A
:104AB0006946306801F03EFF00221346012801A933
:104AC000306818BF2C6002F067F8012818BF2C600E
:104AD0003B680421552BD9F8000008BF2C6002F078
:104AE000CFFB3B68D9F80000552B4FF0010108BF00
:104AF0002C6002F0C5FB009B0133042B0093D5DD35
:104B00003B681420552B05D002F010FE3B681420A2
:104B1000552BF9D102F00AFE054B054A1B680133FB
:104B20001360EBE6647D00206C7D0020707D00202A
:104B3000607D0020687D002010B5042184B0002233
:104B4000052001F0B9FE0E4A0024022310600D4931
:104B50008DE8180002942346039450220A4802F07C
:104B60001FFA0A49012201910092029403942346FC
:104B700007495022074802F013FA04B010BD00BFE5
:104B80006C7D002098900000ED480000687D0020BA
:104B9000A090000049480000F0B40D490D4C0E4DA6
:104BA00023680E682F680D4AB74210680DD0181A96
:104BB00018BF01200A4B1E682D682368012E08BF0C
:104BC00000200D601360F0BC70470020F2E700BFCA
:104BD0005C7D0020607D0020787D0020747D0020B9
:104BE000707D00202DE9F0410D4600210B460A465C
:104BF000064601F09FFE012808BF114BDFF84080F8
:104C000008BF1860C824012700210B460A46304619
:104C100001F0C2FF2B68012818BFC8F800700133EB
:104C2000013C2B60F0D1234630462146224601F05C
:104C3000B3FF012804BF024B1860BDE8F08100BF3C
:104C4000947D00202DE9F84343680546AA2B00F126
:104C5000080903D149460068FFF7C4FF00210A464E
:104C60000B46286801F098FF164F012808BF3860EE
:104C70004FF001082E68002130460A460B4601F02D
:104C80008BFF012808BF3860C82400210B460A4664
:104C9000304601F04FFEAB68012818BFC7F800800E
:104CA0000133013CAB60F0D1214630462246234619
:104CB00001F040FE012808BF386049462868FFF728
:104CC00091FFD7E7947D002030B5C82085B001461C
:104CD00001F01AFE0246154C0025AA23226029463F
:104CE0006360C820A56001F00FFEE060256165618A
:104CF0002368B3B100240E4950220C4B0094019458
:104D0000029403940B4802F04BF90094019402942E
:104D10000394084808495022084B02F041F905B0B5
:104D200030BDE368002BE5D1F9E700BF7C7D0020B2
:104D3000A8900000454C0000B0900000887D002045
:104D4000F0B585B0076801F031FB104E104D00241E
:104D50004FF47A7002F0EAFC23460E495022009785
:104D60000196029403940C48346002F019F9074B41
:104D7000019402940394009707480849502202F0D6
:104D80000FF92B8801339BB22B80E0E7B0E80020BD
:104D90009C7D0020B8900000A14D0000C090000054
:104DA00070B582B0C0B104685926022500950196FD
:104DB000009A019BC82003FB02F3019302F0B6FCAA
:104DC000002CF3D0002002F0B1FC204602F0E8F9FC
:104DD000002002F0E5F9E9E70446E5E710B50446EE
:104DE00084B0042001F048FA0022046003460192D6
:104DF0000292039208498C220094084802F0D0F8ED
:104E000002F080FB064B18601A6801321A601A68BB
:104E100001321A6004B010BDC8900000414D00007E
:104E2000A07D00200F49104A0B8810889BB2984241
:104E300018BF0B8810B51ABF13800124002402F09C
:104E400061FB0A4B0A491A680860904206D31B6846
:104E5000C01A042828BF0024204610BD0024204684
:104E600010BD00BF9C7D002010000020A07D002010
:104E7000987D00202DE9F041124E134DDFF84C8053
:104E800082B0012702F030FB02F02EFB0022134615
:104E9000306801A901F080FE044602F0D1FB00B1A8
:104EA0002F6002F0CDFB002CECD0019AD8F8003036
:104EB0009A4218BF2F602A68012AE3D00133C8F84C
:104EC0000030DFE7B4E80020C47D0020C07D002072
:104ED00080B50C4D0C4F0D4C012602F005FB002255
:104EE00013460A49286801F025FD012818BF3E60D5
:104EF00002F0A6FB802002F019FC23680133236036
:104F0000EBE700BFB4E80020B87D0020A47D0020BE
:104F100010B50446002002F017FA23680133FE2B77
:104F2000FCD92360002002F00FFAF6E72DE9F84FD4
:104F30000027B9461E4D1F4EDFF87C80DFF87CA0AD
:104F4000C5F800900524306802F0FEF93068D5F805
:104F500000B002F05FFA802002F0E8FB013C02F0B2
:104F6000C3FA2B68A4B29B4508BF012702F068FB77
:104F7000002CE8D1306802F0E7F9D8F800002C6086
:104F800002F048FA2B68FF2B04D00127306802F0AA
:104F900041FAD5E7002FF9D101F08AFABAF80030CA
:104FA00001339BB2AAF8003001F0A0FAEEE700BF8F
:104FB000BC7D0020C87D0020AC7D0020A87D0020A5
:104FC00070B50646002002F047F90446451C0AE089
:104FD000336821460133336002F052F9002002F0B9
:104FE0003BF9A0420DD10020294602F049F90020EA
:104FF00002F032F9A8424FF00000E9D001F042FA85
:10500000FEE701F03FFAFEE730B5042185B000224B
:10501000012001F051FC1D4D1D4B1E4A002418605B
:105020001D492B46019200940294039450221B4880
:1050300001F0B6FF1A4901222B4601910092029419
:10504000039418495022184801F0AAFF23460094FF
:1050500001940294039415495022154801F0A0FFD1
:10506000234600940194029403941249502212485A
:1050700001F096FF009401940294039423460F4993
:1050800050220F4801F08CFF05B030BDBC7D0020E0
:10509000B4E80020C87D0020D0900000C14F00007F
:1050A000AC7D0020D8900000114F0000E09000007F
:1050B0002D4F0000E8900000D14E0000F09000005D
:1050C000754E00000F4B104A70B4104C19681568EB
:1050D00020880F4BA94280B21E8811D0801B18BFB8
:1050E00001200C4E0C4D36682D68012E248808BF17
:1050F0000020012D08BF00201C80116070BC70478B
:105100000020EEE7C07D0020B07D0020A87D0020BB
:10511000B47D0020B87D0020C47D002008B503F0D8
:1051200015F8BDE8084003F049B800BF28B32DE9E1
:10513000F04300240746A14640F24D15DFF84080B9
:1051400083B029462346CDF800800C48012202F0A6
:10515000A9FE0134064605F24D1548B102F0CCF91E
:10516000CDF80090024601213046002302F0B8FE3F
:10517000BC42E6D103B0BDE8F0837047F890000070
:105180001D5100002DE9F0410446DFF85080124E19
:1051900082B000257B270197019B03F565334733D8
:1051A0000193019BA3EB83030193019B88FB0321E4
:1051B000DA170B44C2EBA3030193019BB34201D066
:1051C0000125E8E7002DFBD101F072F901232360EE
:1051D00001F08CF9DFE700BF1B77FEFF93244992B3
:1051E00000B5002385B08DE80900029303930449BC
:1051F0005022044B044801F0D3FE05B05DF804FBD7
:1052000000910000CC7D002085510000034B00225E
:1052100018681A60801A18BF01207047CC7D0020E2
:10522000284D2DE98848AB46274F284C284EDFF8FB
:10523000A480DFF8A4A0DFF8A4902068002101F08A
:1052400055FD0128F9D12B68012B02D001233360D1
:10525000F3E73B68012BF9D1D8F80030DAF8000009
:105260000133C8F8003002F0D5F8D9F8000002F098
:10527000D1F8DBF80030012B19D0134B1B68012B40
:1052800015D0002001F0E8FF022817D1206801F0B6
:1052900013FC012818BF01234FF0000018BF336032
:1052A00001F0DAFF0028C8D001F0ECF8FEE7012396
:1052B0000020336001F0D0FF0228E7D001F0E2F8CF
:1052C000FEE700BFE47D0020FC7D0020F87D00208B
:1052D000E87D0020DC7D0020D47D0020D87D0020EA
:1052E0002DE980481D4E83B0DFF87C80B2461C4C0F
:1052F000DFF87890DFF878B01A4F01250CE02560D0
:10530000DBF800303A680133934218BF2560DBF8C0
:1053100000300133CBF8003030686FF0010101F04C
:10532000E5FC0128EBD1D8F80030012B01D020603A
:10533000E6E7DAF80000019301F0BEFB012818BF90
:10534000019B4FF0000018BF2360C9F8005001F026
:10535000FBFF0023C9F80030D2E700BFF87D002032
:10536000E87D0020F07D0020FC7D0020E47D002011
:10537000F47D00202DE9F8431D4D1E4FDFF8789095
:10538000DFF878800126286801F096FB012808BF25
:1053900038600A240821286801F0A8FC01284FF091
:1053A000140018BF3E6002F0C1F9013CF2D10A249A
:1053B000142002F0BBF9286801F07EFB012818BF19
:1053C0003E60013CF4D1286801F076FB012808BF5B
:1053D0003860D9F8003000200133C9F80030C8F82F
:1053E000006001F0B1FF0023C8F80030CBE700BF38
:1053F000F87D0020E87D0020F07D0020FC7D00206D
:1054000010B5042084B001F02FFB144B186010B3CA
:10541000134A00240223019200931249234650228A
:1054200002940394104801F0BBFD10490122234669
:10543000019100920E495022029403940D4801F00C
:10544000AFFD009401940294039423460A480B494B
:10545000502201F0A5FD04B010BD00BFF87D002072
:10546000D87D00200891000075530000D47D0020F5
:1054700010910000E152000021520000189100003C
:10548000154B164A1968106810B488421FD0196865
:10549000134B1160134A144914680868844213BFFF
:1054A000096801221A601160104A114914680868DD
:1054B000844206BF01221A600968186818BF11608B
:1054C00010F1FF3018BF01205DF8044B7047044B0A
:1054D00001221A60DEE700BFF07D0020EC7D002095
:1054E000E87D0020E07D0020F47D0020D07D0020BC
:1054F000DC7D00202DE9F041064682B000F0D8FFA7
:10550000274A17881388BFB201339BB2138000F07B
:10551000EDFFB2687568002A3ED040F6FF73019334
:10552000DFF880803FB2002400210B46306801F094
:1055300033FB012806D0B268002AF5D100F096FFAF
:10554000B268F1E72A68019B01999A4218BF0124C9
:1055500000232B602968019A994218BF0124013366
:105560009A42F6D200210A460B46306801F0E2F971
:1055700080B13CB9032F05DC38F8173001339BB2FA
:1055800028F81730B06800EB8000400002F0CEF839
:10559000B268C9E70124F5E7FF230193C0E700BF24
:1055A000107E0020007E002070B5064684B00C20DE
:1055B00000F062FE044648B300210322012001F0FE
:1055C0007BF900210B4620600A4601F0B3F92368FD
:1055D000E3B1042000F050FE03460025FF22606086
:1055E00024491A602448A56050222346009501955D
:1055F0000295039501F0D4FC009501950295039561
:1056000023461D481D49502201F0CAFC0C2000F021
:1056100033FE044658B300210322012001F04CF967
:1056200000210B4620600A4601F084F92368F3B19B
:10563000042000F021FE40F6FF710346002564229D
:10564000606019600C48A2600D4950222346009604
:1056500001950295039501F0A3FC01950295039530
:105660000096234604480749502201F099FC04B0F3
:1056700070BD00BF20910000F5540000289100008B
:10568000309100003891000070B40A490A4C0120A2
:10569000002334F81320B1F9006034F8135012B22B
:1056A0000133964208BF0020042B21F8025BF0D1A1
:1056B00070BC7047087E0020007E00202DE9F04F6E
:1056C00083B0154604468B461046022101AAFEF718
:1056D00047FC8046002867D0284601AA0121FEF732
:1056E0003FFC824600285CD0019B0022C254FCF79C
:1056F000B9FC0746C8B93D4D0FCD2060616003CDB0
:105700002E88AD78A260E360206161612683A57672
:10571000204603F0E9F9364B221819889B7821526C
:105720000020937003B0BDE8F08F4046FCF79AFC70
:1057300000283CD1002F51DD05461DE02946FCF72D
:1057400033FD01224B4631462046FCF7E1FC48463A
:10575000FCF7C2FC40462749FCF7A0FC35448146D3
:105760000122A8B131464B462046FCF7F7FC4846DB
:10577000FCF7B2FCAF4231DD7E1B5E4550461E4950
:10578000A8BF5E46FCF78AFC002281460028D5D1DE
:105790001A4D0FCD2D88206025826160A260E360E4
:1057A000B6E700F06FFEFEE700F06CFEFEE7254670
:1057B000134E06F1200E37460FCF774528606960FB
:1057C000AA60EB6006F1100605F11005F3D1306810
:1057D000B288B3792860AA80AB7199E7094B03CBF3
:1057E0001B8820602381616092E700BF6091000008
:1057F000FC950000A4910000DC910000B491000031
:105800007C910000A891000030B583B004460121CE
:10581000104601AAFEF7A4FBD0B10546FCF73EFDF9
:1058200080B10D4B18689B882060A380204603F050
:105830005BF90A4B221819889B782152002093703B
:1058400003B030BD2A462046054902F0A9FEEDE727
:1058500000F018FEFEE700BFD8910000FC950000A4
:10586000C891000010B50A4691F84B1082B0CB06E3
:105870000CD4074C11F0010F064B08BF2346516DA5
:105880000091054902F08CFE02B010BD034BF6E713
:10589000FC910000EC9100000C920000E0910000EF
:1058A000F0B50C4683B0174600212246054602F0AB
:1058B0006BFF042C24D91E4E023C3068322C28BFCA
:1058C000322420B32C442F4604E007F8010BA742F2
:1058D000306818D0FCF788FC431CF6D13068FCF720
:1058E000FBFB002030600446284603F0FDF8114B16
:1058F0002A1819889B7829522046937003B0F0BD6E
:1059000000F0C0FDFEE7041C18BF0124ECE7384698
:10591000012101AAFEF724FB30B10749FCF7BEFBC9
:1059200030600028DFD0CDE700F0ACFDFEE700BF1F
:10593000147E0020FC950000DC91000030B583B09F
:1059400004460D461046012101AAFEF709FB08B3E3
:10595000FCF7C0FC80B1114B18689B882060A380C5
:10596000204603F0C1F80E4B221819889B7821526B
:105970000020937003B030BD23460A4A291F1068E7
:105980001279206003F8042FC9B218460122FCF7EF
:10599000D9FCE5E700F076FDFEE700BFD8910000F6
:1059A000FC950000209200000429F8B51AD91F4E7A
:1059B00005463468FCB12046FCF738FBA8B13068D6
:1059C00000F0F4FC00231C4633602B70284603F0E3
:1059D0008BF80346164A291816889278EE528A7078
:1059E0002046F8BD00F04EFDFEE731682846FFF77F
:1059F00039FF0124EAE7B4208F1E00F03DFC034686
:105A0000306058B101460B48FCF7F2FA0028ECD0A0
:105A100039462846084A02F0D5FDD7E739462846D8
:105A2000064A1C4602F0CEFDD0E700BF187E0020DB
:105A3000FC950000289200002C9200004C9200007F
:105A400008B50848FEF7FAF90748FEF7F7F90748DE
:105A5000FEF7F4F90648FEF7F1F9BDE808400548FD
:105A6000FEF7ECB9F093000040910000D0930000E5
:105A700050910000E09300002DE9F041A34884B06C
:105A8000FEF7A4F9022832D010B104B0BDE8F081CD
:105A900001269F493246684602F082FDC821012254
:105AA0009C48FCF74FFC69469A4A9B4802F068FD07
:105AB00068469A49FCF7F2FA0746002855D09548FF
:105AC00006F13001C82202F05FFE002501E0B54278
:105AD00011D09048C82101223B46FCF73FFB01282A
